:0300000002086A89
:0C086A00787FE4F6D8FD75814A02087D15
:1007D900C2A31206641208761208297F41120596EF
:0607E9001208860203DB8A
:100707007B007A0079087F52120376EF7013FB7A29
:1007170000790C12028CEF70E712083B1203078076
:05072700DFD2A380DB1E
:06087D001207D902070773
:080376008F218B228A238924C8
:10037E001208177D077F0D1206A27D037F14120847
:10038E005D852127753E01753F007540007541273B
:10039E007542007543007544257B007A0079277FEE
:1003AE000C120003EF7023E52664104525701BAB7D
:1003BE0022AA23A924E527120239AB22AA23A924B3
:0C03CE00900001E52812024B80027FFE27
:0103DA002200
:06028C008B218A22892368
:10029200E4F525120817E4FD7F0D1206A27D807F8A
:1002A2000E12081B752893752920753E02753F00B2
:1002B2007540007541287542007543007544267BE0
:1002C200007A0079287F0C1200038F24E524702B1A
:1002D200FF74282FF8E6AB21AA22A9238F82758307
:1002E2000012024B74282FF8E662250FBF04E27455
:1002F200282FF8E6652560037524FE7D807F0E12A7
:04030200085DAF24BF
:0103060022D4
:10066400D29400C29400D294007D0F7F011206A29E
:10067400007D3D7F111206A27D1E7F2D1206A2E48D
:10068400FD7F2C1206A27D8D7F2A1206A27D3E7F5D
:0E0694002B1206A27D407F151206A27F0022C7
:10059600EF644170401208177D3D7F111206A27D5F
:1005A600867F171206A27D7F7F261206A27D1E7FFA
:1005B6002D1206A2E4FD7F2C1206A27D8D7F2A1243
:1005C60006A27D3E7F2B1206A27F017E0012078DBA
:0B05D60012082980037FFF227F002213
:0605E100AC07AB05E4FECF
:1005E700E4FEC291C290EF25E0547E4480FF7D086F
:1005F700EF30E703D38001C39292D291EF25E0FF5A
:10060700C291DDEC7D08D291EE25E0FEA293E433A2
:0C0617004206C291DDF0D290D291AF06F5
:0106230022B4
:1006A200C291C290EF25E0547EFF7E08EF30E7034F
:1006B200D38001C39292D291EF25E0FFC291DEEC8A
:1006C2007E08ED30E703D38001C39292D291ED25EB
:0A06D200E0FDC291DEECD290D2915F
:0106DC0022FB
:0D085D001205E1AE07AF04EB4EFD0206A24E
:040817007D087F08D1
:0E081B001205E1AE07AF04EBF45EFD0206A28B
:080003008F3A8B3B8A3C893DDA
:10000B007545FEE4F546F547E53A24F4600C24FE0D
:10001B00700E75461275471080067546777547301A
:10002B00E5464480FD7F021206A27D807F04120804
:10003B001BE4FD7F011206A27D807F0A12085DE49E
:10004B00F549F54AC3E54A953EE5499400501FAB87
:10005B003BAA3CA93D854A8285498312020CFD7F50
:10006B00091206A2054AE54A70DA054980D6AD3A6F
:10007B007F011206A2E53AB40C077D807F0D1208B2
:10008B005D754907754AD07F041205E78F48E54A2D
:10009B00154A70021549E54A45496009E54820E0D3
:1000AB0004554760E27D807F0D12081BE54A4549E8
:1000BB00700302016C7F061205E7EF541B6003020D
:1000CB000169F545E548554630E0037545FFE53ACE
:1000DB00640C600302016C7F0A1205E78F487F0CEA
:1000EB001205E7EF5407FD6021E54824FFFFE434D8
:1000FB00FFFEEF7803C333CE33CED8F97C002DFF50
:10010B00EC3EAB42AA43A944800FE54875F008A426
:10011B00FFAB42AA43A944E5F08FF012026DE5480C
:10012B007003754801E548D394124003754812E4F7
:10013B00F549F54AC3E54A9548E549940050227FB5
:10014B00091205E7AB3FAA40A941854A828549833D
:10015B00EF12024B054AE54A70DA054980D6754520
:10016B00FE7D807F0C12085DE4FD7F011206A2AFBD
:01017B00453E
:01017C002260
:100829007F141205E7EF540370077D037F14120844
:010839005D61
:01083A00229B
:070876007D037F1402081B43
:10078D00E4F5CAF5CCD2CAEF1FAC0670011E4C6061
:0B079D000730CFFDC2CF80EFC2CA22A0
:03088300D29722E7
:03088600C29722F4
:10017D00C9D8B9D8D1A7D4BA003E3EB6A1CFE36352
:10018D003331323C0052464944D6C7C4DCC3C5BDE9
:10019D00FBCFB5CDB32000C7EBCBA2BFA8A3A1A3C6
:1001AD00A12000BBB6D3ADBBD8C0B4A3A1A3A10001
:1001BD00C4FAB5C4BFA8BAC5CEAA00B1A7C7B8A323
:1001CD00ACB4CBBFA8CEB4D7A2B2E100C7EBBCC7CD
:1001DD00D7A1C4FAB5C4BFA8BAC5A3BA00B2A2C10B
:1001ED00AACFB5B9DCC0EDD4B100B1CFB9FABFB566
:0F01FD0000D1EEBEBCBDA800B3C2CFCDC8A800D4
:040750007F057E00A3
:0A075400EF1FAC0670011E4C60128E
:10075E00E4F521E521C394FA50EC000000000521D8
:02076E0080F118
:010770002266
:1007EF00C2B5D2B6D2B400000000E580339200C289
:0307FF00B4A200A1
:0108020022D3
:100771001207EF40FBC2B5C2B6C2B400008F8000C1
:0C078100000000D2B400000000C2B4224E
:1007A8001207EF40FBD2B5C2B6C2B48F800000007A
:0A07B80000D2B400000000C2B42219
:0406DD00C2A6C2A748
:1006E100D2B77F341207711207507F30120771128F
:1006F10007507F0C1207711207507F011207717F9B
:06070100057E0002075412
:04072C00E4FD7F0366
:10073000EF70047F808013BF01047F90800CBF02A4
:10074000047F888005BF03027F98EF2DFF020771A9
:06062400740C2CF8E6FF47
:02062A00AE0719
:10062C00EE54F0C4540FFDD39409ED400A75F00953
:10063C0084E5F0244080022430FF1207A8EE540F0A
:10064C00FDD39409ED400A75F00984E5F02440804F
:07065C00022430FF1207A881
:010663002274
:0F084D0012075012072CE4FC1206240CBC04F90D
:01085C002279
:10080300120750E4FD7F02120730E4FC1206240CA9
:03081300BC04F929
:0108160022BF
:1003DB007F0A7E001207541206DDE4FDFF12073080
:1003EB00E4FEEE90017D93FF60061207A80E80F2EB
:1003FB00E4FD7F01120730E4FEEE90018693FF606F
:10040B00061207A80E80F2E4FD7F02120730E4FE0D
:10041B00EE90019293FF60061207A80E80F212076E
:10042B002CE4FEEE9001A493FF60061207A80E8049
:01043B00F2CE
:01043C00229D
:100494007F0A7E001207541206DDE4FDFF120730C6
:1004A400E4FEEE9001B093FF60061207A80E80F2FE
:1004B400E4FD7F01120730E4FEEE9001F793FF6044
:1004C400061207A80E80F2E4FD7F02120730E4FE54
:1004D400EE9001BD93FF60061207A80E80F212078A
:0604E4002CE4FE02084DAD
:1004EA007F0A7E001207541206DDE4FDFF12073070
:1004FA00E4FEEE9001B093FF60061207A80E80F2A8
:10050A00E4FD7F01120730E4FEEE9001FE93FF60E6
:10051A00061207A80E80F2E4FD7F02120730E4FEFD
:10052A00EE9001BD93FF60061207A80E80F2120733
:06053A002CE4FE02084D56
:100540007F0A7E001207541206DDE4FDFF12073019
:10055000E4FEEE9001B093FF60061207A80E80F251
:10056000E4FD7F01120730E4FEEE90020593FF6088
:10057000061207A80E80F2E4FD7F02120730E4FEA7
:10058000EE9001BD93FF60061207A80E80F21207DD
:060590002CE4FE02084D00
:10043D007F0A7E001207541206DDE4FDFF1207301D
:10044D00E4FEEE9001C893FF60061207A80E80F23D
:10045D00E4FD7F01120730E4FEEE9001D993FF60B9
:10046D00061207A80E80F2E4FD7F02120730E4FEAB
:10047D0012080312072CE4FEEE9001EA93FF6006CA
:06048D001207A80E80F228
:010493002246
:10083B00C2A37F057E0012078DD2A37F057E000227
:02084B00078D17
:1007C2001208837F1E7E0012078D1208867F1E7E0E
:0707D2000012078D0203DB9A
:10030700E50CB40B11E50DB4340CE50EB45207E55A
:100317000FB435028014E50CB40114E50DB4020FD7
:10032700E50EB4030AE50FB40405120494802FE523
:100337000CB4FB13E50D700FE50EB41E0AE50FB400
:1003470025051204EA8017E50CB49515E50DB45997
:1003570010E50EB4A00BE50FB469061205400207BD
:0F036700C212043D7F3C7E0012078D1203DB2281
:10020C00BB010CE58229F582E5833AF583E02250A7
:10021C0006E92582F8E622BBFE06E92582F8E222F1
:0D022C00E58229F582E5833AF583E493220B
:10023900BB010689828A83F0225002F722BBFE01A4
:02024900F3229E
:10024B00F8BB010DE58229F582E5833AF583E8F0E9
:10025B00225006E92582C8F622BBFE05E92582C895
:02026B00F2227D
:10026D00BB010A89828A83F0E5F0A3F0225006F7DC
:0F027D0009A7F01922BBFE06F3E5F009F31922D9
:00000001FF
